:1000000012C019C0FDCFFCCFFBCFFACFF9CFF8CF8C
:10001000F7CF0CC0F5CFF4CFF3CFF2CFF1CFF0CFC5
:10002000EFCFEECFEDCFE6E0FBE00994EF93FF9347
:10003000EBECFBE00994EF93FF93E9EDFBE009940F
:1000400002E00A95F1F7000000000895B1E0B093D6
:100050006400B0E0B093650029E01EE105EE0A956A
:10006000F1F71A95E1F72A95D1F70000089505E810
:100070000A95F1F700000895B1E14B1619F43BBC65
:100080002ABC06C0B2E14B1619F439BC28BC00C02A
:1000900008951AE303E20A95F1F71A95E1F70000D3
:1000A0000000089520926600309267000FEF10E084
:1000B00002191309009366001093670081010F5F16
:1000C0001F4F180100916600109167000150104009
:1000D0000093660010936700B9DF5F924F923F92E2
:1000E0002F92B1E14B2E2090660030906700C4DF64
:1000F0002F903F90B2E14B2EBFDF4F905F903F9229
:100100002F92BFEF2B2E3B2E46D62F903F900FEF16
:1001100010E0201631060CF4D1CF0895209266002D
:10012000309267000FEF10E0021913090093660088
:10013000109367008BDF5F924F923F922F92B1E155
:100140004B2E2224332498DFB2E14B2E2090660000
:100150003090670091DF2F903F904F905F901BD6BB
:1001600091012D5F3F4F19010091660010916700CA
:100170000350104000936600109367000FEF10E0EB
:10018000201731070CF4D6CF0895CF93DF93CDB766
:10019000DEB72D97CDBFDEBF21962092660030924C
:1001A00067000FEF10E00219130900936600109327
:1001B00067003F922F92EDE0FAE009952F903F9073
:1001C00045DF5F924F92B1E14B2E56DF3F922F9267
:1001D000B2E14B2E20906600309067004DDF2F90EB
:1001E0003F904F905F903F922F92BFEF2B2E3B2E70
:1001F000D2D52F903F90FE01B4E5B193B9E4B1930D
:10020000BDE4B193B5E4B193B2E5B193B1E3B19379
:10021000BFE5B193B3E4B193B8E4B193BFE5B19353
:10022000B1E4B193B0E2B193B0E0B1938E015F92CB
:100230004F923F922F922801B1E03B2EB1E02B2E3E
:10024000E7E1FAE009952F903F903F922F92B8E6B0
:100250004B2EB0E05B2EA1D5B8E64B2EB0E05B2E66
:10026000BBE03B2EB1E02B2EE7E1FAE00995B8E6C2
:100270004B2EB0E05B2E20906600309067008DD54D
:10028000FE01B4E5B193B9E4B193BDE4B193B5E433
:10029000B193B2E5B193B1E3B193BFE5B193B3E4E8
:1002A000B193B8E4B193BFE5B193B2E4B193B0E2D6
:1002B000B193B0E0B1938E012801B1E03B2EB2E0E2
:1002C0002B2EE7E1FAE00995B8E64B2EB0E05B2E65
:1002D000BBE03B2EB2E02B2EE7E1FAE00995FE01F0
:1002E000B0E5B193B7E7B193BDE6B193B2E3B19393
:1002F000B0E2B193B0E0B1938E012801B1E03B2EA2
:10030000B1E02B2EE7E1FAE00995B8E64B2EB0E01C
:100310005B2EB6E92B2EB0E03B2E3FD5B8E64B2E38
:10032000B0E05B2EB5E03B2EB2E02B2EE7E1FAE029
:1003300009952F903F904F905F9091012F5F3F4F15
:100340001901009166001091670001501040009360
:100350006600109367000FEF10E0201731070CF4D0
:100360002FCF2C96CDBFDEBFDF91CF910895CF93D5
:10037000DF93CDB7DEB72F97CDBFDEBF21963F927B
:100380002F92EDE0FAE009952F903F905FDE5F92AB
:100390004F923F922F92B1E14B2E222433246CDEF8
:1003A0002F903F90B2E14B2E67DE4F905F903F92CF
:1003B0002F92BFEF2B2E3B2EEED42F903F90FE01BD
:1003C000B0E2B193BFE5B193B4E5B193B9E4B193B1
:1003D000BDE4B193B5E4B193B2E5B193B1E3B193A8
:1003E000BFE5B193B3E4B193B8E4B193BFE5B19382
:1003F000B2E4B193B0E2B193B0E0B1938E015F92F9
:100400004F923F922F922801B1E03B2EB1E02B2E6C
:10041000E7E1FAE009952F903F903F922F92B8E6DE
:100420004B2EB0E05B2EB9D4B8E64B2EB0E05B2E7D
:10043000B5E03B2EB2E02B2EFAD72F903F904F9095
:100440005F9091012F5F3F4F19010FEF10E02017D0
:1004500031070CF49BCF2E96CDBFDEBFDF91CF913D
:100460000895CF93DF93CDB7DEB72F97CDBFDEBF13
:1004700021965F924F923F922F92B1E14B2E222410
:100480003324FADDB2E14B2E22243324F5DD2F9004
:100490003F904F905F907FD45F924F923F922F9208
:1004A000BCD7FE01B0E2B193BFE5B193B4E5B1931F
:1004B000B9E4B193BDE4B193B5E4B193B2E5B193BE
:1004C000B1E3B193BFE5B193B3E4B193B8E4B193B1
:1004D000BFE5B193B1E4B193B0E2B193B0E0B193B1
:1004E0008E012801B1E03B2EB1E02B2EA0D72F903A
:1004F0003F903F922F92B8E64B2EB0E05B2E4DD44A
:10050000B8E64B2EB0E05B2EB5E03B2EB2E02B2ED2
:100510008ED7FE01B0E5B193B7E7B193BDE6B193D5
:10052000B2E3B193B0E2B193B0E0B1938E01280190
:10053000B1E03B2EB1E02B2E7AD7B8E64B2EB0E0DF
:100540005B2EB6E92B2EB0E03B2E27D4B8E64B2E1F
:10055000B0E05B2EB5E03B2EB2E02B2E68D72F909B
:100560003F904F905F9091012F5F3F4F19010FEF28
:1005700010E0201731070CF47CCF2E96CDBFDEBFE4
:10058000DF91CF91089520926600309267000FEFBF
:1005900010E00219130900936600109367008101AF
:1005A0000F5F1F4F18010091660010916700015006
:1005B0001040009366001093670048DD5F924F92F1
:1005C0003F922F92B1E14B2E209066003090670051
:1005D00053DDB2E14B2E222433244EDD2F903F9089
:1005E0004F905F90D8D332DD0FEF10E02016310628
:1005F0000CF4D5CF089520926600309267000FEF7B
:1006000010E00219130900936600109367001EDDC5
:100610005F924F923F922F92B1E14B2E22243324CE
:100620002BDD2F903F90B2E14B2E26DD4F905F9057
:10063000B2D391012F5F3F4F19010FEF10E0201748
:1006400031070CF4E4CF08952092660030926700E1
:100650000FEF10E002191309009366001093670072
:10066000F5DC5F924F923F922F92B1E14B2EBEE1AB
:100670002B2EB0E03B2E00DDB2E14B2EBAE02B2E4C
:10068000B0E03B2EF9DC2F903F904F905F903F926F
:100690002F92B4E62B2EB0E03B2E7DD32F903F90CF
:1006A00091012D5F3F4F19010FEF10E02017310727
:1006B0000CF4D6CF089516E00BE20A95F1F71A95DF
:1006C000E1F7000000000895209266003092670074
:1006D0000FEF10E0021913090093660010936700F2
:1006E00081010F5F1F4F1801009166001091670094
:1006F000015010400093660010936700A7DC5F92E2
:100700004F92B1E14B2EB8DC3F922F92B2E14B2ECB
:1007100022243324B1DC2F903F904F905F903BD345
:100720000FEF10E0201631060CF4DACF0895209276
:100730006600309267000FEF10E002191309009372
:1007400066001093670081010F5F1F4F1801009131
:1007500066001091670001501040009366001093EE
:10076000670074DC5F924F92B1E14B2E85DC3F92C3
:100770002F92B2E14B2E20906600309067007CDC17
:100780002F903F904F905F903F922F92BFEF2B2E74
:100790003B2E01D32F903F900FEF10E02016310633
:1007A0000CF4D1CF089520926600309267000FEFCD
:1007B00010E002191309009366001093670081018D
:1007C0000F5F1F4F180100916600109167000150E4
:1007D0001040009366001093670038DC5F924F92E0
:1007E000B1E14B2E49DCB2E14B2E46DC4F905F90DD
:1007F0003F922F92BFEF2B2E3B2ECDD22F903F90CA
:100800000FEF10E0201631060CF4D9CF0895209296
:100810006600309267000FEF10E002191309009391
:1008200066001093670081010F5F1F4F1801009150
:10083000660010916700015010400093660010930D
:10084000670004DC5F924F923F922F92B1E14B2EF2
:100850002224332411DC2F903F90B2E14B2E0CDC8C
:100860004F905F9098D20FEF10E0201631060CF4F5
:10087000DACF0895C801BA0197FB092E07260AD0DE
:1008800077FD04D00CD006D000201AF47095619545
:100890007F4F0895F6F7909581959F4F0895AA1B75
:1008A000BB1B51E107C0AA1FBB1FA617B70710F05B
:1008B000A61BB70B881F991F5A95A9F7809590958D
:1008C000BC01CD0108950895B0E0B4BD53BCB0E0C3
:1008D000B5BD05B50229042905BD3092710005B5E5
:1008E000032905BD0895B1E07B1609F050C0B0E0C2
:1008F000BFBDB0E0BEBDB0E0BDBDB0E0BCBD4FBC53
:100900006BBC5ABC69BC58BCBBE02B1639F40FB5A4
:1009100001600FBD0EB5077E0EBD38C0BCE02B16C2
:1009200039F4BFB5B260BFBD0EB5077E0EBD2EC097
:10093000BDE02B1639F40FB503600FBD0EB5077E71
:100940000EBD24C0BEE02B1639F40FB501600FBDFB
:100950000EB508600EBD1AC0BFE02B1639F40FB5F6
:1009600002600FBD0EB508600EBD10C0B0E12B16C1
:1009700039F40FB503600FBD0EB508600EBD06C09B
:100980000FB50C7F0FBD0EB5077E0EBD03C00FB5B2
:100990000C730FBD30926F000EB503290EBD089584
:1009A000B0917000BE7FB09370001DD1B091700007
:1009B000B160B09370000895B0913500BF7EB093E0
:1009C0003500B0913500BF7DB0933500B091350052
:1009D000BE7FB0933500B0913500BD7FB093350038
:1009E000B0913500BB7FB0933500B0913500B77F33
:1009F000B0933500B0913400B061B0933400B09141
:100A00003400B062B0933400B0913400B860B09359
:100A10003400B0913400B460B0933400B09134002D
:100A2000B260B0933400B0913400B160B093340040
:100A300030DB2FDB2EDBB0913500B460B093350096
:100A4000B0913500B860B0933500B0913500B06119
:100A5000B0933500F5DAB0913500BF7EB093350024
:100A600018DBB0913500B061B0933500E9DAB09190
:100A70003500BF7EB09335000CDBB0913500B0611E
:100A8000B0933500DDDAB0913500BF7EB09335000C
:100A900000DBB0913500B77FB0933500B0913500E1
:100AA000B061B0933500CCDAB0913500BF7EB09321
:100AB0003500EFDAB0913500B061B0933500C0DA9F
:100AC000B0913500BF7EB0933500B0913500BB7F4B
:100AD000B0933500B0913500B160B0933500B0915E
:100AE0003500B061B0933500ABDAB0913500BF7E10
:100AF000B0933500CEDAB0913500BE7FB0933500AB
:100B0000B0913500B860B0933500B0913500B06158
:100B1000B093350095DAB0913500BF7EB0933500C3
:100B2000B0913500B77FB0933500B0913500B0611A
:100B3000B093350085DAB0913500BF7EB0933500B3
:100B4000A8DAB0913500B061B093350079DAB09190
:100B50003500BF7EB0933500B0913500B860B093DA
:100B60003500B0913500B061B093350069DAB091CD
:100B70003500BF7EB09335008CDAB0913500B77F79
:100B8000B0933500B0913500B061B093350058DABC
:100B9000B0913500BF7EB0933500B0913500B160A3
:100BA000B0933500B0913500B260B0933500B0918C
:100BB0003500B460B0933500B0913500B860B093A3
:100BC0003500B0913500B061B093350039DAB0919D
:100BD0003500BF7EB09335005CDAB0917000B16033
:100BE000B0937000089527FAB0913500B0F9B09332
:100BF000350026FAB0913500B1F9B093350025FAE9
:100C0000B0913500B2F9B093350024FAB0913500B7
:100C1000B3F9B0933500B091700000903500E894BE
:100C2000B0FF689405F800923500B0913500B061CE
:100C3000B093350005DAB0913500BF7EB093350032
:100C400023FAB0913500B0F9B093350022FAB09193
:100C50003500B1F9B093350021FAB0913500B2F901
:100C6000B093350020FAB0913500B3F9B093350058
:100C7000B091700000903500E894B0FF689405F8DA
:100C800000923500B0913500B061B0933500D8D9ED
:100C9000B0913500BF7EB0933500B0917000B0FFC9
:100CA00002C0F7D901C0E3D90895CF93DF93CDB740
:100CB000DEB72F97CDBFDEBF21963F922F92ADD3E7
:100CC0002F903F90C3D95F924F92B1E14B2ED4D970
:100CD0003F922F92B2E14B2E22243324CDD92F9074
:100CE0003F904F905F903F922F92BFEF2B2E3B2E65
:100CF00052D02F903F9081010F5F1F4F1801FE01CE
:100D0000B0E2B193BFE5B193B4E5B193B9E4B19367
:100D1000BDE4B193B5E4B193B2E5B193B1E3B1935E
:100D2000BFE5B193B3E4B193B8E4B193BFE5B19338
:100D3000B1E4B193B0E2B193B0E0B1938E015F92B0
:100D40004F923F922F922801B1E03B2EB1E02B2E23
:100D50006ED32F903F903F922F92B8E64B2EB0E08B
:100D60005B2E1BD0B8E64B2EB0E05B2EB5E03B2EE1
:100D7000B2E02B2E5CD32F903F904F905F900FEFFF
:100D800010E0201631060CF49DCF2E96CDBFDEBFAD
:100D9000DF91CF91089523BC0895CF93DF93CDB712
:100DA000DEB72397CDBFDEBF2196B0E83B1611F426
:100DB000B0E02B1681F4F201BDE2B193B3E3B1933D
:100DC000B2E3B193B7E3B193B6E3B193B8E3B193B0
:100DD000B0E0B19351C0B0E0BA8300E010E020165B
:100DE00031063CF4BFEFBA8300E010E002191309AA
:100DF0001801F201B0E2B193B0E2B193B0E2B19365
:100E0000B0E2B193B0E2B193B0E3B193B0E0B1938B
:100E100082010B5F1F4F08831983B0E03B1611F46A
:100E2000B0E02B1611F15F924F923F922F924AE061
:100E300050E081011FDD8C012F903F90005DE88123
:100E4000F98100833F922F924AE050E0810112DD48
:100E50008B012F903F904F905F901801088119816E
:100E60000150104008831983D8CF0A81002321F054
:100E7000E881F981BDE2B0832296CDBFDEBFDF916C
:100E8000CF9108954F925F9220926000309261005E
:100E90000FEF10E002191309009362001093630032
:100EA0003F922F9240907200509073002090620009
:100EB000309063005CDA4090720050907300209094
:100EC0006000309061002AD9409072005090730009
:100ED00020906000309061008EDB2F903F90009159
:100EE0006000109161000D5F1F4F00936000109330
:100EF0006100009162001091630003501040009364
:100F0000620010936300009164001091650010303E
:100F100009F4023009F00AC02091600030916100AC
:100F20000FEF10E0201731070CF4BACFBAEAB093F4
:100F30006000B0E0B0936100B5E5B0936200B0E04E
:100F4000B09363000091640010916500103009F4C3
:100F5000023009F028C03F922F92409072005090CA
:100F6000730020906000309061001DDC2F903F9056
:100F7000009160001091610098012F5F3F4F209316
:100F80006000309361000091620010916300015095
:100F9000104000936200109363000FEF10E02017E1
:100FA00031070CF4CFCFBEEBB0936000B0E0B0934C
:100FB0006100B1E4B0936200B0E0B09363000091CF
:100FC000640010916500103009F4023009F028C067
:100FD0003F922F92409072005090730020906000DA
:100FE0003090610071DB2F903F9000916000109174
:100FF00061009801265F3F4F2093600030936100AD
:1010000000916200109163000A501040009362004A
:10101000109363000FEF10E0201731070CF4CFCFCF
:10102000B4EBB0936000B0E0B0936100BBE4B09368
:101030006200B0E0B093630000916400109165001D
:10104000103009F4023009F04CC03F922F924090CA
:10105000720050907300209060003090610025DE97
:1010600040907200509073002090620030906300B6
:101070007ED94090720050907300209060003090B4
:101080006100C5DB409072005090730020906000BA
:101090003090610043D840907200509073002090CF
:1010A00060003090610043DB2F903F900091600022
:1010B0001091610098012F5F3F4F209360003093A3
:1010C0006100009162001091630001501040009394
:1010D0006200109363000FEF10E0201731070CF44B
:1010E000ABCF5F904F900895CF93DF93CDB7DEB72E
:1010F0002197CDBFDEBF2196B0E0B883B42D11E0BB
:10110000BB2319F0110FBA95E9F7F1010081102303
:1011100000E0103009F001E00615D9F400E00515F3
:1011200030F4C9DAC8DA052D0150502EF7CFB42DAE
:1011300011E0BB2319F0110FBA95E9F7F101008115
:10114000102300E0103009F001E0061511F4BFEFA4
:10115000B8830881CDBFDEBFDF91CF9108954F9254
:101160005F922092600030926100BFEFB093620006
:10117000B0E0B09363003F922F9240907200509085
:101180007300209060003090610035DA2F903F901E
:1011900000916000109161000D5F1F4F009360008F
:1011A00010936100009162001091630003501040A1
:1011B0000093620010936300009164001091650039
:1011C000103009F4023009F00AC02091600030911B
:1011D00061000FEF10E0201731070CF4CCCFBAEA12
:1011E000B0936000B0E0B0936100B5E5B0936200E9
:1011F000B0E0B0936300009164001091650010307E
:1012000009F4033009F028C03F922F9240907200F9
:10121000509073002090600030906100C4DA2F90ED
:101220003F90009160001091610098012F5F3F4F47
:101230002093600030936100009162001091630080
:101240000150104000936200109363000FEF10E014
:10125000201731070CF4CFCFBEEBB0936000B0E0A5
:10126000B0936100B1E4B0936200B0E0B09363006A
:101270000091640010916500103009F4033009F00A
:1012800028C03F922F92409072005090730020909F
:1012900060003090610018DA2F903F90009160005C
:1012A000109161009801265F3F4F209360003093BA
:1012B000610000916200109163000A501040009399
:1012C0006200109363000FEF10E0201731070CF459
:1012D000CFCFB4EBB0936000B0E0B0936100BBE45B
:1012E000B0936200B0E0B09363000091640010918D
:1012F0006500103009F4033009F04EC03F922F9280
:101300004090720050907300209060003090610017
:10131000CCDC4090720050907300209062003090BE
:10132000630025D8409072005090730020906000B8
:10133000309061006CDA4090720050907300209001
:10134000600030906100EEE8F0E009954090720096
:10135000509073002090600030906100E8D92F9089
:101360003F90009160001091610098012F5F3F4F06
:10137000209360003093610000916200109163003F
:101380000150104000936200109363000FEF10E0D3
:10139000201731070CF4A9CF5F904F900895CF9399
:1013A000DF93CDB7DEB72297CDBFDEBF21962F9258
:1013B0003F924F925F926F927F92B0E0B883B98371
:1013C000B7B3B260B7BBB7B3B460B7BBB7B3B860BD
:1013D000B7BBB1EFB5BD5524B0E24B2EB2E03B2E0A
:1013E000B8E42B2E71DAB1E07B2E58806980B0EA28
:1013F0004B2EB2E03B2EBBE02B2E75DA28803980D5
:10140000CADC7F906F905F904F903F902F90219615
:10141000CDBFDEBFDF91CF9108952F92CDDAB1E03D
:101420002B2EE1DBBCE02B2EDEDB2F9008952F92DC
:10143000B1E02B1619F4B0E82B2E14C0B2E02B1635
:1014400019F4B0EC2B2E0EC0B3E02B1619F4B4E94E
:101450002B2E08C0B4E02B1619F4B4ED2B2E02C0CD
:10146000B0E82B2E032D0150020D202E202EBBDBC9
:10147000B0917000BE7FB09370009201F9010081BD
:10148000002379F0F90100813F932F932F92202EB2
:1014900087DA2F902F913F9189010F5F1F4F98019D
:1014A000EDCFB0917000B160B09370002F900895AF
:1014B0004F925F92B0E0B0936000B0936100BFEFD5
:1014C000B0936200B0E0B09363003F922F924090DF
:1014D0007200509073002090600030906100E5DB56
:1014E0004090720050907300209060003090610036
:1014F000E7EBF1E009954090720050907300209066
:10150000600030906100E1E3F2E0099540907200E4
:10151000509073002090600030906100E5ECF0E0A6
:1015200009954090720050907300209060003090B8
:101530006100E2E5F0E00995409072005090730080
:101540002090600030906100EEE8F0E00995409056
:10155000720050907300209060003090610013D8AA
:1015600040907200509073002090600030906100B5
:10157000DED8409072005090730020906000309050
:10158000610011D94090720050907300209060006B
:10159000309061003CD940907200509073002090D0
:1015A00060003090610090D84090720050907300BD
:1015B00020906000309061001ED8409072005090E2
:1015C000730020906000309061003ED82F903F90D3
:1015D000009160001091610098012D5F3F4F2093B2
:1015E000600030936100009162001091630003502D
:1015F000104000936200109363000FEF10E020177B
:1016000031070CF462CF5F904F900895BFE5BDBFE6
:10161000B4E0BEBFCDB7DEB72E97CDBFDEBF2196FB
:101620002F923F924F925F92C7D9B1E02B2EDBDA17
:10163000BCE02B2ED8DAFE01B7E5B193B1E6B19349
:10164000B9E6B193B4E7B193B9E6B193BEE6B1930D
:10165000B7E6B193B0E2B193B6E4B193BFE6B1930C
:10166000B2E7B193B0E2B193B0E0B1938E0128013B
:10167000B1E03B2EB1E02B2EDADEFE01B4E5B193F2
:10168000BFE6B193B0E2B193B2E4B193B5E6B193E2
:10169000B0E2B193B0E5B193B2E7B193B5E6B193DF
:1016A000B3E7B193B3E7B193B5E6B193B4E6B193C1
:1016B000B0E0B1938E012801B1E03B2EB2E02B2EB9
:1016C000B6DE6DDEB1B3BB7FB1BBB5B7B160B5BF40
:1016D000BFB7BF77BFBFBFB7B068BFBFBBB7B0644E
:1016E000BBBFB1E0B0936400B0E0B093650000917F
:1016F000640010916500103009F4013061F4B0E02D
:10170000B0936000B093610088DE2090600030905C
:101710006100CEDE3AC00091640010916500103087
:1017200009F4023039F479DE2090600030906100D5
:10173000A9DB2BC00091640010916500103009F402
:10174000033039F46ADE209060003090610007DDDC
:101750001CC00091640010916500103009F4043041
:1017600059F45BDE409072005090730022243324C1
:10177000E7E9F3E0099509C04090720050907300CA
:1017800022243324E7E9F3E00995B1CF5F904F902D
:101790003F902F90FFCFBF93BFB7BF93B0E0B8BBD0
:1017A000FDCFBF91BFBFBF91FF91EF911895FFFF94
:1017B000FFFF0F921F922F923F924F925F926F9274
:1017C0007F928F929F92AF92BF92CF92DF92EF92D1
:1017D000FF920F931F932F933F934F935F936F93BA
:1017E0007F938F939F93AF93BF93CF93DF93EF93A9
:1017F000FF93BF93BFB7BF93CF93DF93CDB7DEB750
:101800006297CDBFDEBF21962F923F924F925F929B
:101810006F92BFB7BF77BFBFBAB7BF7BBABFBBB707
:10182000BF7BBBBFB0917000BD7FB09370006624DA
:101830005524B2E04B2EB2E32B2EB0E03B2E54DC0D
:10184000002329F0B0917000B260B0937000B1E055
:101850006B2E5524B2E04B2EB0E32B2EB0E03B2E86
:1018600043DC00907000112701FC1395012309F45B
:1018700047C10091640010916500103009F40430F4
:1018800039F4B1E0B0936400B0E0B09365000AC0F1
:1018900000916400109165000F5F1F4F009364007A
:1018A000109365000091640010916500103009F4F8
:1018B000013009F043C0B1DDB8E64B2EB0E05B2E3D
:1018C000209064003090650068DAB8E64B2EB0E0F6
:1018D0005B2EB9E03B2EB2E02B2EA9DDFE01BDE46C
:1018E000B193BFE6B193B4E6B193B5E6B193B0E27C
:1018F000B193BAE3B193B0E2B193B4E4B193B1E67A
:10190000B193BEE6B193B3E6B193B9E6B193BEE647
:10191000B193B7E6B193B0E0B1938E012801B1E085
:101920003B2EB1E02B2E83DD25E01FE002EF0A9570
:10193000F1F71A95E1F72A95D1F7E2C0009164001A
:1019400010916500103009F4023009F041C065DDE6
:10195000B8E64B2EB0E05B2E20906400309065001E
:101960001CDAB8E64B2EB0E05B2EB9E03B2EB2E0BD
:101970002B2E5DDDFE01BDE4B193BFE6B193B4E66D
:10198000B193B5E6B193B0E2B193BAE3B193B0E2EB
:10199000B193B3E4B193BCE6B193B1E6B193B3E7CD
:1019A000B193B9E6B193B3E6B193B0E0B1938E01D0
:1019B0002801B1E03B2EB1E02B2E39DD25E01FE000
:1019C00002EF0A95F1F71A95E1F72A95D1F798C039
:1019D0000091640010916500103009F4033009F0A3
:1019E0003DC01BDDB8E64B2EB0E05B2E20906400BE
:1019F00030906500D2D9B8E64B2EB0E05B2EB9E04E
:101A00003B2EB2E02B2E13DDFE01BDE4B193BFE609
:101A1000B193B4E6B193B5E6B193B0E2B193BAE352
:101A2000B193B0E2B193B7E7B193B1E6B193B2E746
:101A3000B193BDE6B193B0E0B1938E012801B1E05E
:101A40003B2EB1E02B2EF3DC25E01FE002EF0A95E0
:101A5000F1F71A95E1F72A95D1F752C00091640089
:101A600010916500103009F4043009F049C0D5DC4C
:101A7000B8E64B2EB0E05B2E2090640030906500FD
:101A80008CD9B8E64B2EB0E05B2EB9E03B2EB2E02D
:101A90002B2ECDDCFE01BDE4B193BFE6B193B4E6DD
:101AA000B193B5E6B193B0E2B193BAE3B193B0E2CA
:101AB000B193B5E6B193B3E6B193B8E6B193BFE69F
:101AC000B193BCE6B193B1E6B193BAE7B193B9E68D
:101AD000B193B5E6B193B2E7B193B0E0B1938E01A3
:101AE0002801B1E03B2EB1E02B2EA1DC25E01FE068
:101AF00002EF0A95F1F71A95E1F72A95D1F700C0A0
:101B0000BBB7B064BBBFBFB7B068BFBF6F905F90DB
:101B10004F903F902F906196CDBFDEBFDF91CF9168
:101B2000BF91BFBFBF91FF91EF91DF91CF91BF9167
:101B3000AF919F918F917F916F915F914F913F9165
:101B40002F911F910F91FF90EF90DF90CF90BF905A
:101B5000AF909F908F907F906F905F904F903F904D
:101B60002F901F900F90FF91EF911895FFFFFFFFAF
:00000001FF
