:1000000012C019C0FDCFFCCFFBCFFACFF9CFF8CF8C
:10001000F7CF0CC0F5CFF4CFF3CFF2CFF1CFF0CFC5
:10002000EFCFEECFEDCFEAECFBE00994EF93FF9337
:10003000EFE8FCE00994EF93FF93EDE9FCE009940D
:100040000000000000000000089502E40A95F1F7A6
:100050000000000008951DE101E90A95F1F71A95E5
:10006000E1F7000000000895B1E14B1619F43BBC24
:100070002ABC06C0B2E14B1619F439BC28BC00C03A
:1000800008950091670010916800103009F4013064
:1000900041F410ED0AEC0A95F1F71A95E1F700002A
:1000A00033C00091670010916800103009F40230ED
:1000B00049F41CE907ED0A95F1F71A95E1F70000FC
:1000C000000022C00091670010916800103009F410
:1000D000033059F422E014E00BEB0A95F1F71A957E
:1000E000E1F72A95D1F700000FC000916700109149
:1000F0006800103009F4043039F416E001E30A9581
:10010000F1F71A95E1F700C0089520926900309246
:100110006A000FEF10E002191309009369001093B1
:100120006A0081010F5F1F4F180100916900109153
:100130006A00015010400093690010936A00A1DF2B
:100140005F924F923F922F92B1E14B2E2090690027
:1001500030906A0089DF2F903F90B2E14B2E84DF10
:100160004F905F903F922F9220906900B8D52F90CA
:100170003F900FEF10E0201631060CF4D2CF089517
:100180002092690030926A000FEF10E00219130903
:100190000093690010936A0074DF5F924F923F9260
:1001A0002F92B1E14B2E2090690030906A005CDF05
:1001B000B2E14B2E2090690030906A0055DF2F90FD
:1001C0003F904F905F908BD591012D5F3F4F19016C
:1001D0000091690010916A0003501040009369007B
:1001E00010936A000FEF10E0201731070CF4D4CF02
:1001F00008952092690030926A000FEF10E0021912
:1002000013090093690010936A0081010F5F1F4F6B
:1002100018010091690010916A000150104000938C
:10022000690010936A002DDF5F924F923F922F92E8
:10023000B1E14B2E2224332417DFB2E14B2E2224CE
:10024000332412DF2F903F904F905F903F922F9278
:100250002090690044D52F903F900FEF10E02016BA
:1002600031060CF4D2CF0895C801BA0197FB092ECC
:1002700007260AD077FD04D00CD006D000201AF44F
:10028000709561957F4F0895F6F7909581959F4FF2
:100290000895AA1BBB1B51E107C0AA1FBB1FA617CD
:1002A000B70710F0A61BB70B881F991F5A95A9F71F
:1002B00080959095BC01CD0108950895CF93DF936B
:1002C000CDB7DEB72D97CDBFDEBF21962092690056
:1002D00030926A000FEF10E00219130900936900D1
:1002E00010936A003F922F92E0EBF9E009952F906E
:1002F0003F90C7DE5F924F92B1E14B2EB5DE3F9249
:100300002F92B2E14B2E2090690030906A00ACDE53
:100310002F903F904F905F90E2D4FE01B4E5B193EF
:10032000B9E4B193BDE4B193B5E4B193B2E5B1934F
:10033000B1E3B193BFE5B193B3E4B193B8E4B19342
:10034000BFE5B193B1E4B193B0E2B193B0E0B19342
:100350008E015F924F923F922F922801B1E03B2E87
:10036000B1E02B2EEAEBF9E009952F903F903F92F8
:100370002F92B0E64B2EB0E05B2EE5D5B0E64B2ECB
:10038000B0E05B2EBBE03B2EB1E02B2EF3D7B0E606
:100390004B2EB0E05B2E2090690030906A00D3D5E0
:1003A000FE01B4E5B193B9E4B193BDE4B193B5E412
:1003B000B193B2E5B193B1E3B193BFE5B193B3E4C7
:1003C000B193B8E4B193BFE5B193B2E4B193B0E2B5
:1003D000B193B0E0B1938E012801B1E03B2EB2E0C1
:1003E0002B2EC8D7B0E64B2EB0E05B2EBBE03B2EE9
:1003F000B2E02B2EBFD7FE01B0E5B193B7E7B193C2
:10040000BDE6B193B2E3B193B0E2B193B0E0B19382
:100410008E012801B1E03B2EB1E02B2EABD7B0E628
:100420004B2EB0E05B2EB6E92B2EB0E03B2E8BD5E9
:10043000B0E64B2EB0E05B2EB5E03B2EB2E02B2EAB
:1004400099D72F903F904F905F9091012F5F3F4F32
:1004500019010091690010916A0001501040009349
:10046000690010936A000FEF10E0201731070CF4B9
:1004700040CF2C96CDBFDEBFDF91CF910895CF93B3
:10048000DF93CDB7DEB72F97CDBFDEBF21963F926A
:100490002F9266D72F903F90F4DD5F924F92B1E19B
:1004A0004B2EE2DDB2E14B2EDFDD4F905F9017D493
:1004B00081010F5F1F4F1801FE01B0E2B193BFE54C
:1004C000B193B4E5B193B9E4B193BDE4B193B5E4AC
:1004D000B193B2E5B193B1E3B193BFE5B193B3E4A6
:1004E000B193B8E4B193BFE5B193B1E4B193B0E295
:1004F000B193B0E0B1938E015F924F923F922F92F1
:100500002801B1E03B2EB1E02B2E34D72F903F9045
:100510003F922F92B0E64B2EB0E05B2E14D5B0E6A2
:100520004B2EB0E05B2EB5E03B2EB2E02B2E22D757
:100530002F903F904F905F900FEF10E02016310604
:100540000CF4AACF2E96CDBFDEBFDF91CF910895D8
:100550002092690030926A000FEF10E0021913092F
:100560000093690010936A008CDD5F924F92B1E1B5
:100570004B2E7ADD3F922F92B2E14B2E20906900F4
:1005800030906A0071DD2F903F904F905F903F92C6
:100590002F92B1E02B2EA3D32F903F9091012F5F8C
:1005A0003F4F19010FEF10E0201731070CF4DCCF9B
:1005B000089513E005E90A95F1F71A95E1F70000AF
:1005C000000008952092690030926A000FEF10E059
:1005D000021913090093690010936A0052DD5F92BB
:1005E0004F923F922F92B1E14B2EBEE12B2EB0E005
:1005F0003B2E3ADDB2E14B2EBAE02B2EB0E03B2E83
:1006000033DD2F903F904F905F903F922F92B4E652
:100610002B2E65D32F903F9091012D5F3F4F1901F5
:100620000FEF10E0201731070CF4D8CF0895209277
:10063000690030926A000FEF10E00219130900936D
:10064000690010936A0081010F5F1F4F180100912C
:10065000690010916A0001501040009369001093E6
:100660006A000FDD5F924F923F922F92B1E14B2EC5
:100670002090690030906A00F7DCB2E14B2E2090A8
:10068000690030906A00F0DC2F903F904F905F90AF
:1006900026D3F7DC5F924F923F922F92B1E14B2E1F
:1006A00022243324E1DCB2E14B2E22243324DCDC8F
:1006B0002F903F904F905F903F922F9222240FD324
:1006C0002F903F900FEF10E0201631060CF4BBCFB7
:1006D00008952092690030926A000FEF10E002192D
:1006E00013090093690010936A0081010F5F1F4F87
:1006F00018010091690010916A00015010400093A8
:10070000690010936A00BDDC5F924F923F922F9276
:10071000B1E14B2E2090690030906A00A5DC2F904B
:100720003F90B2E14B2EA0DC4F905F903F922F9212
:100730002224D5D22F903F900FEF10E020163106E3
:100740000CF4D3CF08952092690030926A000FEF25
:1007500010E0021913090093690010936A008101E7
:100760000F5F1F4F18010091690010916A0001503E
:1007700010400093690010936A0083DC5F924F92EF
:10078000B1E14B2E71DC3F922F92B2E14B2E22242D
:1007900033246ADC2F903F904F905F903F922F92CE
:1007A000209069009CD22F903F900FEF10E0201610
:1007B00031060CF4D4CF0895CF93DF93CDB7DEB7D5
:1007C0002F97CDBFDEBF21963F922F92C9D52F9094
:1007D0003F9057DC5F924F92B1E14B2E45DCB2E186
:1007E0004B2E42DC4F905F907AD2FE01B0E2B19383
:1007F000BFE5B193B4E5B193B9E4B193BDE4B1936E
:10080000B5E4B193B2E5B193B1E3B193BFE5B19370
:10081000B3E4B193B8E4B193BFE5B193B1E4B1935C
:10082000B0E2B193B0E0B1938E015F924F923F92EC
:100830002F922801B1E03B2EB1E02B2E9BD52F90BB
:100840003F903F922F92B0E64B2EB0E05B2E7BD3D1
:10085000B0E64B2EB0E05B2EB5E03B2EB2E02B2E87
:1008600089D52F903F904F905F909101215030405B
:10087000190100E010E0201731070CF4AACF2E96E2
:10088000CDBFDEBFDF91CF910895B0E0B4BD53BCC2
:10089000B0E0B5BD05B50229042905BD309273004D
:1008A00005B5032905BD0895B1E07B1609F050C0D8
:1008B000B0E0BFBDB0E0BEBDB0E0BDBDB0E0BCBD0E
:1008C0004FBC6BBC5ABC69BC58BCBBE02B1639F49E
:1008D0000FB501600FBD0EB5077E0EBD38C0BCE080
:1008E0002B1639F4BFB5B260BFBD0EB5077E0EBD85
:1008F0002EC0BDE02B1639F40FB503600FBD0EB549
:10090000077E0EBD24C0BEE02B1639F40FB5016082
:100910000FBD0EB508600EBD1AC0BFE02B1639F42E
:100920000FB502600FBD0EB508600EBD10C0B0E17E
:100930002B1639F40FB503600FBD0EB508600EBD60
:1009400006C00FB50C7F0FBD0EB5077E0EBD03C0F0
:100950000FB50C730FBD309272000EB503290EBD9A
:100960000895B0916D00BE7FB0936D001DD1B09120
:100970006D00B160B0936D000895B0913500BF7EF9
:10098000B0933500B0913500BF7DB0933500B09184
:100990003500BE7FB0933500B0913500BD7FB09378
:1009A0003500B0913500BB7FB0933500B091350074
:1009B000B77FB0933500B0913400B061B09334008C
:1009C000B0913400B062B0933400B0913400B8609C
:1009D000B0933400B0913400B460B0933400B0915F
:1009E0003400B260B0933400B0913400B160B09381
:1009F000340031DB30DB2FDBB0913500B460B093D5
:100A00003500B0913500B860B0933500B091350035
:100A1000B061B093350014DBB0913500BF7EB09368
:100A2000350019DBB0913500B061B093350008DBBB
:100A3000B0913500BF7EB09335000DDBB09135002D
:100A4000B061B0933500FCDAB0913500BF7EB09351
:100A5000350001DBB0913500B77FB0933500B09120
:100A60003500B061B0933500EBDAB0913500BF7E50
:100A7000B0933500F0DAB0913500B061B093350035
:100A8000DFDAB0913500BF7EB0933500B09135000C
:100A9000BB7FB0933500B0913500B160B0933500A5
:100AA000B0913500B061B0933500CADAB09135002D
:100AB000BF7EB0933500CFDAB0913500BE7FB093E2
:100AC0003500B0913500B860B0933500B091350075
:100AD000B061B0933500B4DAB0913500BF7EB09309
:100AE0003500B0913500B77FB0933500B091350037
:100AF000B061B0933500A4DAB0913500BF7EB093F9
:100B00003500A9DAB0913500B061B093350098DABC
:100B1000B0913500BF7EB0933500B0913500B8601C
:100B2000B0933500B0913500B061B093350088DAEC
:100B3000B0913500BF7EB09335008DDAB0913500AD
:100B4000B77FB0933500B0913500B061B0933500F8
:100B500077DAB0913500BF7EB0933500B0913500A3
:100B6000B160B0933500B0913500B260B0933500FC
:100B7000B0913500B460B0933500B0913500B860E5
:100B8000B0933500B0913500B061B093350058DABC
:100B9000B0913500BF7EB09335005DDAB0916D0045
:100BA000B160B0936D00089527FAB0913500B0F9A7
:100BB000B093350026FAB0913500B1F9B093350005
:100BC00025FAB0913500B2F9B093350024FAB0910E
:100BD0003500B3F9B0933500B0916D000090350049
:100BE000E894B0FF689405F800923500B0913500A4
:100BF000B061B093350024DAB0913500BF7EB09378
:100C0000350023FAB0913500B0F9B093350022FADF
:100C1000B0913500B1F9B093350021FAB0913500AB
:100C2000B2F9B093350020FAB0913500B3F9B09322
:100C30003500B0916D0000903500E894B0FF6894E5
:100C400005F800923500B0913500B061B0933500E1
:100C5000F7D9B0913500BF7EB0933500B0916D00EB
:100C6000B0FF02C0F8D901C0F0D908952092690000
:100C700030926A000FEF10E0021913090093690027
:100C800010936A0081010F5F1F4F180100916900E6
:100C900010916A00015010400093690010936A009F
:100CA000F0D95F924F923F922F92B1E14B2E2224C6
:100CB0003324DAD92F903F90B2E14B2ED5D94F9003
:100CC0005F903F922F922090690009D02F903F9023
:100CD0000FEF10E0201631060CF4D4CF089523BC9A
:100CE00008954F925F9220926B0030926C000FEF4C
:100CF00010E00219130900937000109371003F92E5
:100D00002F9240906E0050906F00209070003090B5
:100D1000710052DD40906E0050906F0020906B008B
:100D200030906C002DDA40906E0050906F00209053
:100D30006B0030906C000CDC2F903F9000916B00AA
:100D400010916C000D5F1F4F00936B0010936C00AF
:100D500000917000109171000350104000937000DA
:100D6000109371000091670010916800103009F431
:100D7000023009F00AC020916B0030916C000FEF37
:100D800010E0201731070CF4BACFBAEAB0936B0029
:100D9000B0E0B0936C00B5E5B0937000B0E0B093F4
:100DA00071000091670010916800103009F4023062
:100DB00009F028C03F922F9240906E0050906F0033
:100DC00020906B0030906C0051DF2F903F9000918D
:100DD0006B0010916C0098012F5F3F4F20936B00C8
:100DE00030936C0000917000109171000150104020
:100DF00000937000109371000FEF10E0201731077F
:100E00000CF4CFCFBEEBB0936B00B0E0B0936C00AE
:100E1000B1E4B0937000B0E0B0937100009167004E
:100E200010916800103009F4023009F028C03F9298
:100E30002F9240906E0050906F0020906B00309089
:100E40006C0081DC2F903F9000916B0010916C0042
:100E50009801265F3F4F20936B0030936C00009108
:100E60007000109171000A501040009370001093B0
:100E700071000FEF10E0201731070CF4CFCFB4EB67
:100E8000B0936B00B0E0B0936C00BBE4B093700023
:100E9000B0E0B093710000916700109168001030CD
:100EA00009F4023009F04CC03F922F9240906E003E
:100EB00050906F0020906B0030906C00E0DA409012
:100EC0006E0050906F00209070003090710074DCC4
:100ED00040906E0050906F0020906B0030906C003E
:100EE00088D940906E0050906F0020906B00309039
:100EF0006C0046D940906E0050906F0020906B00BF
:100F000030906C00E6DB2F903F9000916B001091C9
:100F10006C0098012F5F3F4F20936B0030936C0063
:100F2000009170001091710001501040009370000A
:100F3000109371000FEF10E0201731070CF4ABCFC6
:100F40005F904F900895CF93DF93CDB7DEB723978F
:100F5000CDBFDEBF2196B0E83B1611F4B0E02B16F2
:100F600081F4F201BDE2B193B3E3B193B2E3B19383
:100F7000B7E3B193B6E3B193B8E3B193B0E0B19303
:100F800051C0B0E0BA8300E010E0201631063CF416
:100F9000BFEFBA8300E010E0021913091801F20153
:100FA000B0E2B193B0E2B193B0E2B193B0E2B193E9
:100FB000B0E2B193B0E3B193B0E0B19382010B5FC3
:100FC0001F4F08831983B0E03B1611F4B0E02B16D5
:100FD00011F15F924F923F922F924AE050E08101CF
:100FE00043D98C012F903F90005DE881F981008307
:100FF0003F922F924AE050E0810136D98B012F9029
:101000003F904F905F901801088119810150104066
:1010100008831983D8CF0A81002321F0E881F98160
:10102000BDE2B0832296CDBFDEBFDF91CF910895A0
:10103000CF93DF93CDB7DEB72197CDBFDEBF21962B
:10104000B0E0B883B42D11E0BB2319F0110FBA95AD
:10105000E9F7F1010081102300E0103009F001E010
:101060000615D9F400E0051530F4A3DAA2DA052D4F
:101070000150502EF7CFB42D11E0BB2319F0110F02
:10108000BA95E9F7F1010081102300E0103009F072
:1010900001E0061511F4BFEFB8830881CDBFDEBFB4
:1010A000DF91CF9108954F925F9220926B00309222
:1010B0006C00BFEFB0937000B0E0B09371003F924E
:1010C0002F9240906E0050906F0020906B003090F7
:1010D0006C003EDA2F903F9000916B0010916C00F5
:1010E0000D5F1F4F00936B0010936C000091700018
:1010F0001091710003501040009370001093710024
:101100000091670010916800103009F4023009F076
:101110000AC020916B0030916C000FEF10E0201797
:1011200031070CF4CCCFBAEAB0936B00B0E0B093C7
:101130006C00B5E5B0937000B0E0B0937100009121
:10114000670010916800103009F4033009F028C0DE
:101150003F922F9240906E0050906F0020906B0055
:1011600030906C0083DD2F903F9000916B001091C8
:101170006C0098012F5F3F4F20936B0030936C0001
:1011800000917000109171000150104000937000A8
:10119000109371000FEF10E0201731070CF4CFCF40
:1011A000BEEBB0936B00B0E0B0936C00B1E4B093D1
:1011B0007000B0E0B093710000916700109168007A
:1011C000103009F4033009F028C03F922F9240906C
:1011D0006E0050906F0020906B0030906C00B3DA7E
:1011E0002F903F9000916B0010916C009801265F4A
:1011F0003F4F20936B0030936C0000917000109172
:1012000071000A50104000937000109371000FEFAE
:1012100010E0201731070CF4CFCFB4EBB0936B0084
:10122000B0E0B0936C00BBE4B0937000B0E0B0935A
:1012300071000091670010916800103009F40330CC
:1012400009F050C03F922F9240906E0050906F0076
:1012500020906B0030906C0012D940906E0050903E
:101260006F002090700030907100A6DA40906E0000
:1012700050906F0020906B0030906C00E9EFF0E030
:10128000099540906E0050906F0020906B00309058
:101290006C00E0ECF0E0099540906E0050906F001B
:1012A00020906B0030906C0014DA2F903F900091EA
:1012B0006B0010916C0098012F5F3F4F20936B00E3
:1012C00030936C000091700010917100015010403B
:1012D00000937000109371000FEF10E0201731079A
:1012E0000CF4A7CF5F904F900895CF93DF93CDB7C5
:1012F000DEB72297CDBFDEBF21962F923F924F924D
:101300005F926F927F92B0E0B883B983B7B3B26057
:10131000B7BBB7B3B460B7BBB7B3B860B7BB5524FE
:10132000B0E24B2EB2E03B2EB8E42B2EAEDAB1E0A9
:101330007B2E58806980B0EA4B2EB2E03B2EBBE09A
:101340002B2EB2DA2880CBDC7F906F905F904F908D
:101350003F902F902196CDBFDEBFDF91CF910895B2
:101360002F920BDBB1E02B2E1FDCBCE02B2E1CDC04
:101370002F9008952F92B1E02B1619F4B0E82B2E80
:1013800014C0B2E02B1619F4B0EC2B2E0EC0B3E053
:101390002B1619F4B4E92B2E08C0B4E02B1619F45F
:1013A000B4ED2B2E02C0B0E82B2E032D0150020D00
:1013B000202E202EF9DBB0916D00BE7FB0936D0022
:1013C0009201F9010081002379F0F90100813F9336
:1013D0002F932F92202EC5DA2F902F913F918901C4
:1013E0000F5F1F4F9801EDCFB0916D00B160B093CA
:1013F0006D002F9008954F925F92B6E9B0936B0005
:10140000B0E0B0936C00B9E6B0937000B0E0B09378
:1014100071003F922F9240906E0050906F0020908C
:101420006B0030906C0022DC40906E0050906F009A
:101430002090700030907100BFD940906E005090A5
:101440006F0020906B0030906C00EEE5F1E00995A4
:1014500040906E0050906F0020906B0030906C00B8
:10146000E9EFF0E0099540906E0050906F002090F9
:101470006B0030906C00E5E8F0E0099540906E005C
:1014800050906F0020906B0030906C00E0ECF0E02A
:10149000099540906E0050906F0020906B00309046
:1014A0006C00C5D840906E0050906F0020906B008B
:1014B00030906C000ED940906E0050906F002090DC
:1014C0006B0030906C003FD940906E0050906F00E0
:1014D00020906B0030906C0075D82F903F90009159
:1014E0006B0010916C000D5F1F4F00936B00109309
:1014F0006C00009170001091710003501040009337
:101500007000109371000091670010916800103016
:1015100009F4013009F00AC020916B0030916C0091
:101520000FEF10E0201731070CF473CFBAEAB09335
:101530006B00B0E0B0936C00B5E5B0937000B0E024
:10154000B09371003F922F9240906E0050906F00C8
:1015500020906B0030906C0089DB40906E005090C2
:101560006F0020906B0030906C00EEE5F1E0099583
:1015700040906E0050906F0020906B0030906C0097
:10158000E5E8F0E0099540906E0050906F002090E3
:101590006B0030906C004BD840906E0050906F0004
:1015A00020906B0030906C00CED82F903F9000912F
:1015B0006B0010916C000F5F1F4F00936B00109336
:1015C0006C00009170001091710001501040009368
:1015D0007000109371000091670010916800103046
:1015E00009F4013009F00AC020916B0030916C00C1
:1015F0000FEF10E0201731070CF4A4CFBEEBB0932F
:101600006B00B0E0B0936C00B1E4B0937000B0E058
:10161000B09371003F922F9240906E0050906F00F7
:101620002090700030907100C7D840906E005090AC
:101630006F0020906B0030906C00E0ECF0E00995BA
:1016400040906E0050906F0020906B0030906C00C6
:101650007AD82F903F9000916B0010916C00065F3C
:101660001F4F00936B0010936C000091700010915D
:1016700071000A50104000937000109371000091A7
:10168000670010916800103009F4013009F00AC0B9
:1016900020916B0030916C000FEF10E020173107A4
:1016A0000CF4B8CFB4EBB0936B00B0E0B0936C0027
:1016B000BBE4B0937000B0E0B09371003F922F9202
:1016C00040906E0050906F0020906B0030906C0046
:1016D000EFE3F2E0099540906E0050906F0020908B
:1016E00070003090710068D840906E0050906F008C
:1016F00020906B0030906C00E9EFF0E0099540908D
:101700006E0050906F0020906B0030906C00E0EC09
:10171000F0E0099540906E0050906F0020906B00B3
:1017200030906C00E9E6F3E0099540906E0050902F
:101730006F0020906B0030906C0005D82F903F9088
:1017400000916B0010916C000F5F1F4F00936B00B6
:1017500010936C00009170001091710001501040C6
:101760000093700010937100009167001091680061
:10177000103009F4013009F00AC020916B0030915B
:101780006C000FEF10E0201731070CF497CF5F903B
:101790004F900895BFE5BDBFB4E0BEBFCDB7DEB783
:1017A0002E97CDBFDEBF21962F923F924F925F9230
:1017B000E4D8B1E02B2EF8D9BCE02B2EF5D9FE01F0
:1017C000B7E5B193B1E6B193B9E6B193B4E7B1939C
:1017D000B9E6B193BEE6B193B7E6B193B0E2B19387
:1017E000B6E4B193BFE6B193B2E7B193B0E2B1937F
:1017F000B0E0B1938E012801B1E03B2EB1E02B2E79
:10180000B9DDFE01B4E5B193BFE6B193B0E2B193A7
:10181000B2E4B193B5E6B193B0E2B193B0E5B19360
:10182000B2E7B193B5E6B193B3E7B193B3E7B19340
:10183000B5E6B193B4E6B193B0E0B1938E0128015F
:10184000B1E03B2EB2E02B2E95DD4FDDB1B3BB7F77
:10185000B1BBB5B7B160B5BFBFB7BF77BFBFBFB78B
:10186000B068BFBFBBB7B064BBBFB1E0B0936700A7
:10187000B0E0B093680000916700109168001030EC
:1018800009F4013061F4B0E0B0936B00B0936C00E8
:1018900067DD20906B0030906C00ADDD3AC00091A8
:1018A000670010916800103009F4023039F458DDF7
:1018B00020906B0030906C0014DA2BC00091670010
:1018C00010916800103009F4033039F449DD20909C
:1018D0006B0030906C00E7DB1CC00091670010913A
:1018E0006800103009F4043059F43ADD40906E007D
:1018F00050906F0022243324E9E6F3E0099509C0F3
:1019000040906E0050906F0022243324E9E6F3E00B
:101910000995B1CF5F904F903F902F90FFCFBF932D
:10192000BFB7BF93B0E0B8BBFDCFBF91BFBFBF9102
:10193000FF91EF911895FFFFFFFF0F921F922F92DB
:101940003F924F925F926F927F928F929F92AF924F
:10195000BF92CF92DF92EF92FF920F931F932F933C
:101960003F934F935F936F937F938F939F93AF9327
:10197000BF93CF93DF93EF93FF93BF93BFB7BF9313
:10198000CF93DF93CDB7DEB76297CDBFDEBF219691
:101990002F923F924F925F926F92BFB7BF77BFBFB8
:1019A000BAB7BF7BBABFBBB7BF7BBBBFB0916D003F
:1019B000BD7FB0936D0066245524B2E04B2EB2E398
:1019C0002B2EB0E03B2E34DB002329F0B0916D00CC
:1019D000B260B0936D00B1E06B2E5524B2E04B2E97
:1019E000B0E32B2EB0E03B2E23DB00906D001127DF
:1019F00001FC1395012309F447C100916700109180
:101A00006800103009F4043039F4B1E0B093670095
:101A1000B0E0B09368000AC00091670010916800C0
:101A20000F5F1F4F009367001093680000916700DD
:101A300010916800103009F4013009F043C090DCC7
:101A4000B0E64B2EB0E05B2E20906700309068002F
:101A50007ADAB0E64B2EB0E05B2EB9E03B2EB2E076
:101A60002B2E88DCFE01BDE4B193BFE6B193B4E652
:101A7000B193B5E6B193B0E2B193BAE3B193B0E2FA
:101A8000B193B4E4B193B1E6B193BEE6B193B3E6DA
:101A9000B193B9E6B193BEE6B193B7E6B193B0E0C6
:101AA000B1938E012801B1E03B2EB1E02B2E62DC18
:101AB00023E018E008E70A95F1F71A95E1F72A956F
:101AC000D1F7E2C00091670010916800103009F46E
:101AD000023009F041C044DCB0E64B2EB0E05B2E92
:101AE00020906700309068002EDAB0E64B2EB0E010
:101AF0005B2EB9E03B2EB2E02B2E3CDCFE01BDE4B8
:101B0000B193BFE6B193B4E6B193B5E6B193B0E259
:101B1000B193BAE3B193B0E2B193B3E4B193BCE64D
:101B2000B193B1E6B193B3E7B193B9E6B193B3E63C
:101B3000B193B0E0B1938E012801B1E03B2EB1E04A
:101B40002B2E18DC23E018E008E70A95F1F71A9528
:101B5000E1F72A95D1F798C00091670010916800CD
:101B6000103009F4033009F03DC0FADBB0E64B2E2B
:101B7000B0E05B2E2090670030906800E4D9B0E6BA
:101B80004B2EB0E05B2EB9E03B2EB2E02B2EF2DB09
:101B9000FE01BDE4B193BFE6B193B4E6B193B5E6FF
:101BA000B193B0E2B193BAE3B193B0E2B193B7E7C6
:101BB000B193B1E6B193B2E7B193BDE6B193B0E0B2
:101BC000B1938E012801B1E03B2EB1E02B2ED2DB88
:101BD00023E018E008E70A95F1F71A95E1F72A954E
:101BE000D1F752C00091670010916800103009F4DD
:101BF000043009F049C0B4DBB0E64B2EB0E05B2EF8
:101C000020906700309068009ED9B0E64B2EB0E07F
:101C10005B2EB9E03B2EB2E02B2EACDBFE01BDE427
:101C2000B193BFE6B193B4E6B193B5E6B193B0E238
:101C3000B193BAE3B193B0E2B193B5E6B193B3E631
:101C4000B193B8E6B193BFE6B193BCE6B193B1E608
:101C5000B193BAE7B193B9E6B193B5E6B193B2E700
:101C6000B193B0E0B1938E012801B1E03B2EB1E019
:101C70002B2E80DB23E018E008E70A95F1F71A9590
:101C8000E1F72A95D1F700C0BBB7B064BBBFBFB7BF
:101C9000B068BFBF6F905F904F903F902F9061965C
:101CA000CDBFDEBFDF91CF91BF91BFBFBF91FF918D
:101CB000EF91DF91CF91BF91AF919F918F917F91E4
:101CC0006F915F914F913F912F911F910F91FF90D5
:101CD000EF90DF90CF90BF90AF909F908F907F90CC
:101CE0006F905F904F903F902F901F900F90FF91BB
:101CF000EF911895FFFFFFFFFFFFFFFFFFFFFFFFC3
:00000001FF
